:100000000C942A000C943F000C943F000C943F0089
:100010000C943F000C943F000C943F000C943F0064
:100020000C943F000C943F000C943F000C943F0054
:100030000C943F000C943F000C943F000C943F0044
:100040000C943F000C943F000C943F000C943F0034
:100050000C943F0011241FBECFE5D4E0DEBFCDBF1E
:1000600010E0A0E6B0E0E4E5F2E002C005900D92F9
:10007000A439B107D9F70E94EC000C9428010C9424
:1000800000009C01207F33272C5F28BBE9EFF0E0C4
:100090003197F1F700C0000098B3945098BB829557
:1000A000807F8C5F88BB89EF90E00197F1F700C0FB
:1000B000000088B3845088BB08959C01207F3327BB
:1000C0002B5F28BBE9EFF0E03197F1F700C00000AB
:1000D00028B3245028BB82959295907F9827807FE3
:1000E00098278B5F88BB89EF90E00197F1F700C0FC
:1000F000000088B3845088BB0895CF93DF93EC0150
:100100008881882339F0219690E00E945D008991D2
:100110008111FACFDF91CF91089582E090E00E94A3
:10012000410088E290E00E9441008CE090E00E9453
:10013000410086E090E00E944100089580E182BB8A
:1001400086E890E00E94410080E690E00E947D00F9
:1001500083EC99E00197F1F700C00000089580E476
:1001600082BB86E890E00E94410089E690E00E9410
:100170007D0083EC99E00197F1F700C0000008953D
:1001800080E582BB86E890E00E94410083E790E032
:100190000E947D0083EC99E00197F1F700C0000018
:1001A000089580EA82BB86E890E00E9441008CE7D7
:1001B00090E00E947D0083EC99E00197F1F700C088
:1001C0000000089512BA86E890E00E94410086E897
:1001D00090E00E947D0008958FEF87BB81BB80EF88
:1001E0008ABB0E948D0080E890E00E9441008CE86C
:1001F00090E00E947D002FE38DE093E0215080404D
:100200009040E1F700C0000081E090E00E944100D2
:1002100083EF91E00197F1F700C0000089B38230CD
:1002200011F40E94C00089B3883011F40E94D100FB
:1002300089B3863011F40E949E0089B3843011F492
:100240000E94AF0089B3853049F70E94E200E6CFF3
:04025000F894FFCF50
:100254004C45465420202020005249474854202031
:10026400202000464F525741524420004241434B04
:1002740057415244200053544F50200057454C439B
:040284004F4D450095
:00000001FF
